:100000000C945C000C946E000C946E000C946E00CA
:100010000C946E000C946E000C946E000C946E00A8
:100020000C946E000C946E000C946E000C946E0098
:100030000C946E000C946E000C946E000C946E0088
:100040000C945B010C946E000C946E000C946E008A
:100050000C946E000C946E000C946E000C946E0068
:100060000C946E000C946E00000000080002010069
:100070000003040700000000000000000000000072
:10008000250028002B0000000000240027002A0083
:10009000040404040404040402020202020203032E
:1000A0000303030301020408102040800102040836
:1000B000102001020408102011241FBECFEFD8E049
:1000C000DEBFCDBF21E0A0E0B1E001C01D92A930AC
:1000D000B207E1F70E94A5010C9412020C940000F3
:1000E00090E0FC01EC55FF4F2491FC01E057FF4FDD
:1000F0008491882399F090E0880F991FFC01EA57BA
:10010000FF4FA591B491FC01E458FF4F8591949164
:100110008FB7F894EC91E22BEC938FBF089590E0A9
:10012000FC01E859FF4F2491FC01EC55FF4F34913D
:10013000FC01E057FF4FE491EE2309F43CC0222379
:1001400039F1233091F038F42130A9F0223001F553
:1001500084B58F7D12C0273091F02830A1F0243073
:10016000B9F4809180008F7D03C0809180008F77EB
:10017000809380000DC084B58F7784BD09C08091C5
:10018000B0008F7703C08091B0008F7D8093B00066
:10019000F0E0EE0FFF1FE458FF4FA591B4919FB719
:1001A000F894611104C08C913095382302C0EC9111
:1001B0003E2B3C939FBF08953FB7F8948091050173
:1001C00090910601A0910701B091080126B5A89B66
:1001D00005C02F3F19F00196A11DB11D3FBFBA2FD9
:1001E000A92F982F8827820F911DA11DB11DBC0139
:1001F000CD0142E0660F771F881F991F4A95D1F7FE
:1002000008958F929F92AF92BF92CF92DF92EF921A
:10021000FF920E94DC004B015C0184EFC82EDD24BC
:10022000D394E12CF12C0E94DC00DC01CB01881975
:100230009909AA09BB09883E9340A105B10598F325
:1002400021E0C21AD108E108F10888EE880E83E0A7
:10025000981EA11CB11CC114D104E104F10419F7CA
:10026000FF90EF90DF90CF90BF90AF909F908F90D6
:1002700008950F931F93CF93DF93C7E0D0E0082F2B
:1002800010E0B8010C2E02C0759567950A94E2F74C
:10029000617080E10E948F0061E08EE00E948F001B
:1002A00060E08EE00E948F00219758F7DF91CF9198
:1002B0001F910F9108951F920F920FB60F92112464
:1002C0002F933F938F939F93AF93BF93809101019F
:1002D00090910201A0910301B091040130910001BD
:1002E00023E0230F2D3720F40196A11DB11D05C079
:1002F00026E8230F0296A11DB11D209300018093D3
:10030000010190930201A0930301B0930401809135
:10031000050190910601A0910701B0910801019695
:10032000A11DB11D8093050190930601A0930701C3
:10033000B0930801BF91AF919F918F913F912F9101
:100340000F900FBE0F901F901895789484B582601F
:1003500084BD84B5816084BD85B5826085BD85B569
:10036000816085BD80916E00816080936E001092E7
:100370008100809181008260809381008091810062
:1003800081608093810080918000816080938000F3
:100390008091B10084608093B1008091B000816051
:1003A0008093B00080917A00846080937A0080917D
:1003B0007A00826080937A0080917A0081608093D5
:1003C0007A0080917A00806880937A001092C10050
:1003D0008EE00E9470008FE00E94700080E10E9419
:1003E0007000C0E0D0E060E08FE00E948F008FEFEF
:1003F0000E94390161E08FE00E948F000E9401019C
:1004000060E08FE00E948F0080E00E94390161E08F
:100410008FE00E948F000E940101209721F30E942B
:080420000000E1CFF894FFCFCA
:00000001FF
