:100000000C9461000C9473000C9473000C947300B6
:100010000C9473000C9473000C9473000C94730094
:100020000C9473000C9473000C9473000C94730084
:100030000C9473000C9473000C9473000C94730074
:100040000C9403010C9473000C9473000C947300D3
:100050000C9473000C9473000C9473000C94730054
:100060000C9473000C94730000000000250028001D
:100070002B0000000000240027002A0000000000E0
:1000800023002600290004040404040404040202DA
:100090000202020203030303030301020408102007
:1000A0004080010204081020010204081020000012
:1000B0000008000201000003040700000000000027
:1000C000000011241FBECFEFD8E0DEBFCDBF21E07E
:1000D000A0E0B1E001C01D92A938B207E1F70E948B
:1000E0004D010C9496020C940000833081F028F4AA
:1000F000813099F08230A1F008958730A9F08830DE
:10010000B9F08430D1F4809180008F7D03C080915C
:1001100080008F7780938000089584B58F7702C028
:1001200084B58F7D84BD08958091B0008F7703C022
:100130008091B0008F7D8093B0000895CF93DF93BE
:10014000282F30E0F901E255FF4F8491F901E6567E
:10015000FF4FD491F901EA57FF4FC491CC2391F09E
:1001600081110E947500EC2FF0E0EE0FFF1FE458A4
:10017000FF4FA591B491EC91ED2381E090E021F443
:1001800080E002C080E090E0DF91CF910895CF93AE
:10019000DF9390E0FC01E656FF4F2491FC01EA5703
:1001A000FF4F8491882361F190E0880F991FFC0133
:1001B000EE58FF4FC591D491FC01E859FF4FA5912E
:1001C000B491611109C09FB7F8948881209582236A
:1001D0008883EC912E230BC0623061F49FB7F894B2
:1001E0008881322F309583238883EC912E2B2C939A
:1001F0009FBF06C08FB7F894E8812E2B28838FBF4E
:10020000DF91CF9108951F920F920FB60F92112494
:100210002F933F938F939F93AF93BF9380918501CB
:1002200090918601A0918701B0918801309184015D
:1002300023E0230F2D3720F40196A11DB11D05C029
:1002400026E8230F0296A11DB11D209384018093FF
:10025000850190938601A0938701B09388018091D6
:10026000800190918101A0918201B091830101965A
:10027000A11DB11D8093800190938101A093820103
:10028000B0938301BF91AF919F918F913F912F9137
:100290000F900FBE0F901F901895789484B58260D0
:1002A00084BD84B5816084BD85B5826085BD85B51A
:1002B000816085BD80916E00816080936E00109298
:1002C0008100809181008260809381008091810013
:1002D00081608093810080918000816080938000A4
:1002E0008091B10084608093B1008091B000816002
:1002F0008093B00080917A00846080937A0080912E
:100300007A00826080937A0080917A008160809385
:100310007A0080917A00806880937A001092C10000
:10032000C2E061E08C2F0E94C700CF5FCA30C9F7DE
:1003300060E08EE00E94C70060E08FE00E94C7008E
:1003400060E080E10E94C70060E081E10E94C70098
:1003500060E082E10E94C70060E083E10E94C70084
:1003600060E080E00E94C70060E081E00E94C7007A
:1003700060E08C2F0E94C700CF5FCE30C9F767E4E2
:10038000862E79E0C72ED12CE0E0AE2EE0E0BE2E26
:100390008AE00E949E007C018BE00E949E00EC019E
:1003A0008CE00E949E008C018DE00E949E00CC0F8C
:1003B000DD1FEC0EFD1E000F111F000F111F0E0D93
:1003C0001F1D53E0880F991F5A95E1F7E801C80FE8
:1003D000D91F80927C0080917A00806480937A009B
:1003E00080917A0086FDFCCF0091780080917900A1
:1003F00010E0182B93E0CC0FDD1F9A95E1F727E072
:10040000E22EF12C96012E193F09F901E255FF4F1A
:100410008491F901E656FF4F9490F901EA57FF4F96
:1004200064906620E9F0F701EC0FFD1FE050FF4FEC
:10043000708081110E947500E62DF0E0EE0FFF1F25
:10044000E859FF4FA591B4919FB7F894711004C07B
:100450008C919094982202C0EC919E2A9C929FBF0E
:1004600081E0E81AF10870F6053611050CF057C066
:100470008EE00E949E00FE01E050FF4F21E0892B9C
:1004800009F420E020838FE00E949E00FE01E050EE
:10049000FF4F21E0892B09F420E0218380E10E94B5
:1004A0009E00FE01E050FF4F21E0892B09F420E07F
:1004B000228381E10E949E00FE01E050FF4F21E077
:1004C000892B09F420E0238382E10E949E00FE0133
:1004D000E050FF4F21E0892B09F420E0248383E1E1
:1004E0000E949E00FE01E050FF4F21E0892B09F49D
:1004F00020E0258380E00E949E00FE01E050FF4F37
:1005000021E0892B09F420E0268381E00E949E00EF
:10051000C050DF4F21E0892B09F420E02F83A11484
:10052000B10409F435CF0E94000032CFF894FFCF18
:00000001FF
